:03000000020033C8
:1000300000002275A062113075A061113075A060BA
:10004000113075A05E113075A05D113075A05B1187
:100050003075A059113075A058113075A056113067
:1000600075A054113075A053113075A05111307521
:10007000A04F113075A04E113075A04C113075A0F5
:100080004A113075A049113075A047113075A0454F
:10009000113075A044113075A042113075A0401187
:1000A0003075A03F113075A03D113075A03B113067
:1000B00075A03A113075A038113075A03611307521
:1000C000A035113075A033113075A032113075A0F4
:1000D00031113075A030113075A030113075A0305D
:1000E000113075A0C9113075A0C4113075A0BF11B1
:1000F0003075A0BA113075A0B5113075A0B01130AF
:1001000075A0AB113075A0A6113075A0A111307586
:10011000A09C113075A097113075A092113075A078
:100120008D113075A088113075A083113075A07EB7
:10013000113075A079113075A074113075A06F1150
:100140003075A06A113075A065113075A06011304E
:1001500075A05B113075A056113075A05111307526
:10016000A04C113075A047113075A042113075A018
:100170003D113075A038113075A034113075A030A4
:10018000113075A030113075A03011307E1A75A075
:10019000301130DEF97F3775A0001130DFF9020031
:0101A000332B
:00000001FF
