:100000000200CBE5836003E49322A882E622E58325
:100010006004E4938003A882E6F822E5836004E4A8
:10002000938003A882E6F922E5836004E4938003C9
:10003000A882E6FA22E5836004E4938003A882E6BE
:10004000FB22E5836004E4938003A882E6FC22E5BA
:10005000836004E4938003A882E6FD22E5836004C4
:10006000E4938003A882E6FE22E5836004E49380A3
:1000700003A882E6FF22898288838B00EC4D6036DC
:10008000E4E0F608A31DBDFFF31C80F0B800118B5F
:1000900000EC4D6021E7F609081DBDFFF41C80F15E
:1000A000898288838B00EC4D600CE493F608A31DD5
:1000B000BDFFF31C80F022E4F5D075812C78207A06
:0E00C0000CF608DAFC1201C80200000200B7BC
:10010000A8ACA0B3A0008057E4F528F529E5292480
:10011000F6E52834FF5002800280028041E4F52A8F
:10012000F52BE52B24FBE52A34FF500280028002E8
:100130008016052BE52B7002052AE52B24FBE52A0A
:1001400034FF5002800280EA0529E5297002052863
:10015000E52924F6E52834FF5002800280BF228082
:10016000A7800F8D8075A00075A00175A0001201F9
:10017000062280EF800F8D8075A00275A00375A008
:10018000021201062280EF80268C268D278014859E
:10019000268385278212004F1201740527E52770F8
:1001A00002052685268385278212000370E12280BE
:1001B000D880131201067D381201617D0E12016193
:1001C0007D011201612280EB8065780179007A005F
:1001D0007B207D067C0012008C1201B17D80120113
:1001E000617C007D201201871201067D01120161F0
:1001F0007D831201617C007D201201871201067D42
:10020000011201617DC01201617C007D2012018715
:100210001201067D011201617DC31201617C007D26
:10022000201201871201067D0112016180AE228039
:010230009934
:00000001FF
