:100000000201E08026E4F52BF52C8C2D8D2E800846
:10001000052CE52C7002052BE52DB52B07E52EB53B
:100020002C0280065002800280E62280D80200FF67
:10003000E4F520F52175220075230175240175254D
:100040000175260075270175280075980075B0FFA9
:100050007590FF9001D6E493F5A0E5B020E00DE5A2
:1000600025B401037526017525008003752501E57A
:1000700026601E7C007D64120003E5B020E00F05C1
:1000800023E52324F65002800280037523017526A0
:1000900000E59020E00DE527B401037528017527E0
:1000A000008003752701E52860217C007D64120033
:1000B00003E59020E012E4F520F521752301752475
:1000C000019001D6E493F5A0752800E524B401243D
:1000D000A9237800E52129F521E52038F5207C00C9
:1000E0007D0AAA20AB21120163EBF522E5229001E3
:1000F000D693F5A07C017D2C12000302005A220247
:100100000030E4F5F0F8F9EA4B6043EC4D7013224F
:10011000EAC39C40137004EB9D400DEDC333FDEC2E
:1001200033FC05F0EC30E7E8EAC39C40067007EBCF
:100130009D5003C38008C3EB9DFBEA9CFAD3E933CF
:10014000F9E833F8ECC313FCED13FDD5F0DA8B05B9
:100150008A048802890322C000C001120102D00172
:10016000D00022C000C001120102D001D0008C02D8
:100170008D0322EA30E707E4C39BFBE49AFAEC30F4
:10018000E707E4C39DFDE49CFC22120192AA04ABA4
:100190000522C000C001EC6A33EA13C0E01201730B
:1001A000120102D0E0C0E030E707E4C39BFBE49A11
:1001B000FAD0E030E607E4C39DFDE49CFCD001D01A
:1001C0000022E4F5D075812F78207A0FF608DAFC4A
:1001D00012002D020000C0F9A4B0999282F880901C
:0301E0000201C257
:00000001FF
