:03000000020100FA
:100100007580FF7590F075A0007507FF7506FF7587
:10011000050075803875A00175A0001201FD75807D
:100120000C75A00175A0001201FD75800175A0017C
:1001300075A0001201FD75808075A00175A00012E8
:1001400001F4120172F506B4FF087507FF7505008A
:1001500080F0E505B400EBE506B5070280E4E506AE
:10016000F58075A00375A0021201EFF50775050172
:1001700080D07590F0C290D291D2921201EFE590AA
:100180005470B47002801420E50374372220E40315
:1001900074342220E30374312280007590F0D290F1
:1001A000C291D2921201EFE5905470B470028014A3
:1001B00020E50374382220E40374352220E303741D
:1001C000322280007590F0D290D291C2921201EF4B
:1001D000E5905470B4700374FF2220E50374392253
:1001E00020E40374362220E30374332274FF227D5B
:1001F00032DDFE227E027DFADDFEDEFA227E0A7DFF
:0F020000FADDFEDEFA227E647DFADDFEDEFA22F2
:00000001FF
