:1000000002011B8051E4F523F5248C278D288033D1
:10001000E4F525F526E5262488E52534FF50028001
:1000200002800280160526E52670020525E52624B5
:1000300088E52534FF5002800280EA0524E524701B
:10004000020523E527B52307E528B52402800650DD
:1000500002800280BB2280AD02010275224B752115
:1000600000C201C2007590FF758901758CFE758A0A
:100070004FD28C308D0280028028C28D758CFE7527
:100080008A4FE521C39522500280028004D29080DD
:1000900002C2900521E521249C5002800280037554
:1000A0002100E59020E1272001028002801E7C00D3
:1000B0007D14120003E59020E112E52224B54002F0
:1000C0008002800674052522F522D2018002C20139
:1000D000E59020E2272000028002801E7C007D1433
:1000E000120003E59020E212E52224DC5002800297
:1000F0008006E52224FBF522D2008002C200020025
:10010000732202005BE4F5D0758129F52078217A0D
:0E01100008F608DAFC12005802000002010591
:00000001FF
