:100000000201D702014F752100752230A9227741E4
:100010000522E52270020521A92277420522E52268
:1000200070020521A92277430522E52270020521ED
:10003000A92277440522E52270020521A9227745ED
:100040000522E52270020521A92277460522E52234
:1000500070020521A92277470522E52270020521B9
:10006000A92277480522E52270020521A9227749B5
:100070000522E52270020521A922774A0522E52200
:1000800070020521A922774B0522E5227002052185
:10009000A922774C0522E52270020521A922774D7D
:1000A0000522E52270020521A922774E0522E522CC
:1000B00070020521A922774F0522E5227002052151
:1000C000A92277500522E52270020521A922775145
:1000D0000522E52270020521A92277520522E52298
:1000E00070020521A92277530522E522700205211D
:1000F000A92277540522E522700205217587007533
:100100008920758DE6758BE6D28E75984075210035
:10011000752230752000E52024EC50028002800218
:10012000802A852183852282120152F59980003030
:100130009902800280F9C2990522E5227002052108
:100140000520E52024EC5002800280D680FE2202A9
:100150000006E5836003E49322A882E622E583603B
:1001600004E4938003A882E6F822E5836004E49324
:100170008003A882E6F922E5836004E4938003A863
:1001800082E6FA22E5836004E4938003A882E6FB1A
:1001900022E5836004E4938003A882E6FC22E583E1
:1001A0006004E4938003A882E6FD22E5836004E412
:1001B000938003A882E6FE22E5836004E493800333
:1001C000A882E6FF22E4F5D0758123F520F521F51C
:0A01D000221200030200000201C524
:00000001FF
